:020000040800F2
:1000000000280020210D0008710D0008710D000866
:10001000710D0008710D0008710D0008000000004E
:10002000000000000000000000000000710D00084A
:10003000710D000800000000710D0008710D00082E
:10004000710D0008710D0008710D0008710D000898
:10005000710D0008710D000871010008950100087C
:10006000B9010008DD01000801020008710D000857
:10007000710D0008710D0008710D0008710D000868
:10008000710D0008710D0008710D0008710D000858
:10009000710D0008710D0008710D0008250200089F
:1000A000710D0008710D0008710D0008710D000838
:1000B000710D0008710D0008710D0008710D000828
:1000C000710D0008710D0008710D0008710D000818
:1000D000710D00087D0C0008910C0008A50C0008AB
:1000E000CD020008710D000800000000710D00082D
:1000F000710D0008710D0008710D0008710D0008E8
:10010000710D0008710D0008710D0008710D0008D7
:10011000710D0008710D0008710D0008710D0008C7
:10012000710D0008710D0008710D0008710D0008B7
:1001300010B5054C237833B9044B13B10448AFF321
:1001400000800123237010BD00000020000000008B
:10015000BC0D000808B5034B1BB103490348AFF3BE
:10016000008008BD0000000004000020BC0D000855
:1001700080B500AF054B5B69044A43F0010353614E
:10018000034B1B68984700BF80BD00BF00040140BF
:100190002800002080B500AF054B5B69044A43F09E
:1001A00002035361034B5B68984700BF80BD00BFEB
:1001B000000401402800002080B500AF054B5B69BA
:1001C000044A43F004035361034B9B68984700BF04
:1001D00080BD00BF000401402800002080B500AFB2
:1001E000054B5B69044A43F008035361034BDB682A
:1001F000984700BF80BD00BF0004014028000020D8
:1002000080B500AF054B5B69044A43F010035361AE
:10021000034B1B69984700BF80BD00BF000401402D
:100220002800002080B500AF264B5B6903F0200357
:10023000002B08D0234B5B69224A43F02003536113
:10024000214B5B6998471F4B5B6903F04003002B10
:1002500008D01C4B5B691B4A43F0400353611A4BA7
:100260009B699847174B5B6903F08003002B08D00C
:10027000144B5B69134A43F080035361124BDB69F3
:100280009847104B5B6903F48073002B08D00D4B2B
:100290005B690C4A43F4807353610B4B1B6A9847AC
:1002A000084B5B6903F40073002B08D0054B5B69B6
:1002B000044A43F400735361034B5B6A984700BFE1
:1002C00080BD00BF000401402800002080B500AFC1
:1002D000264B5B6903F48063002B08D0234B5B69DA
:1002E000224A43F480635361214B9B6A98471F4B1A
:1002F0005B6903F40063002B08D01C4B5B691B4A4D
:1003000043F4006353611A4BDB6A9847174B5B69F0
:1003100003F48053002B08D0144B5B69134A43F459
:1003200080535361124B1B6B9847104B5B6903F46E
:100330000053002B08D00D4B5B690C4A43F400536B
:1003400053610B4B5B6B9847084B5B6903F480432D
:10035000002B08D0054B5B69044A43F4804353618A
:10036000034B9B6B984700BF80BD00BF000401405A
:100370002800002080B483B000AF0346FB80FB88D8
:10038000802B42D0802B11DC082B36D0082B06DCCA
:10039000022B2ED0042B2ED0012B28D047E0202B6F
:1003A0002FD0402B2FD0102B29D040E0B3F5006F79
:1003B00033D0B3F5006F09DCB3F5007F29D0B3F576
:1003C000806F28D0B3F5807F21D030E0B3F5005F97
:1003D00027D0B3F5005F03DCB3F5805F1FD026E0C4
:1003E000B3F5804F1FD0B3F5004F1ED01FE00023A0
:1003F0001DE004231BE0082319E00C2317E0102361
:1004000015E0142313E0182311E01C230FE0002350
:100410000DE004230BE0082309E00C2307E0102380
:1004200005E0142303E0182301E01C23FFE718462E
:100430000C37BD4680BC704790B585B000AF786082
:1004400039600023FB730023BB603B681B88FF2BD4
:1004500001D87B6801E07B680433BB603B681B8884
:100460001846FFF787FF02460F239340DA43BB6825
:100470001B681A40BB681A603B689B78072B0BD03F
:100480003B689B78062B07D03B689B78042B03D0F6
:100490003B689B78052B1CD13B689B78043B9B00F9
:1004A0005AB23B68DB785BB213435BB2DBB203F05A
:1004B0000F03FB73FC7B3B681B881846FFF75AFF52
:1004C000034604FA03F2BB681B681A43BB681A6050
:1004D0005CE03B689B78012B03D03B689B78002B4A
:1004E00015D13B689B789B00DBB203F00F03FB73D5
:1004F000FC7B3B681B881846FFF73CFF034604FA69
:1005000003F2BB681B681A43BB681A603EE03B6895
:100510009B78082B15D13B689B789B00DBB203F0DE
:100520000F03FB73FC7B3B681B881846FFF722FF19
:10053000034604FA03F2BB681B681A43BB681A60DF
:1005400024E00823FB733B689B78022B07D17B6870
:10055000DB683A6812881A437B68DA6007E07B68D8
:10056000DB683A681288D2431A407B68DA60FC7B09
:100570003B681B881846FFF7FDFE034604FA03F2AA
:10058000BB681B681A43BB681A60FFE700BF1437DB
:10059000BD4690BD80B400AF0A4B5B689B0803F07A
:1005A0000303012B06D0012B02D3022B04D005E05C
:1005B000054B03E0054B01E0044BFFE71846BD4641
:1005C00080BC70470010024000127A000024F40042
:1005D00080B584B000AF2B4B5B681B0903F00F03A1
:1005E000BB60BB680F2B40D801A252F823F000BFBC
:1005F00031060008310600083106000831060008FF
:1006000031060008310600083106000831060008EE
:10061000370600083D0600084306000849060008A2
:100620004F060008550600085B0600086306000830
:100630000123FB6019E00223FB6016E00423FB604A
:1006400013E00823FB6010E01023FB600DE0402363
:10065000FB600AE08023FB6007E04FF48073FB60DF
:1006600003E04FF40073FB6000BFFFF793FF024607
:10067000FB68B2FBF3F37B607B6818461037BD461E
:1006800080BD00BF0010024080B584B000AF1C4B9D
:100690005B681B0A03F00703BB60BB68072B22D80B
:1006A00001A252F823F000BFC9060008C9060008DD
:1006B000C9060008C9060008CF060008D5060008CC
:1006C000DB060008E10600080123FB600BE00223C3
:1006D000FB6008E00423FB6005E00823FB6002E008
:1006E0001023FB6000BFFFF773FF0246FB68B2FBFD
:1006F000F3F37B607B6818461037BD4680BD00BFB2
:100700000010024080B584B000AF1C4B5B68DB0A70
:1007100003F00703BB60BB68072B22D801A252F885
:1007200023F000BF450700084507000845070008FB
:10073000450700084B070008510700085707000845
:100740005D0700080123FB600BE00223FB6008E06B
:100750000423FB6005E00823FB6002E01023FB603C
:1007600000BFFFF735FF0246FB68B2FBF3F37B6087
:100770007B6818461037BD4680BD00BF00100240A0
:1007800080B584B000AF786039607B685A4A934284
:1007900009D15A4B9B69594A43F480439361584AA3
:1007A0003B6813601AE07B68564A934209D1534B69
:1007B000DB69524A43F40033D361514A3B685360CA
:1007C0000CE07B68504A934208D14C4BDB694B4AA2
:1007D00043F48023D3614A4A3B6893607B68DB68BB
:1007E00043F400527B68DA607B68DB683A68127811
:1007F0001A437B68DA607B68DB683A6812891A43BF
:100800007B68DA607B68DB683A6852891A437B68E8
:10081000DA607B681B693A6892891A437B681A61BF
:100820007B685B693A68D2891A437B685A617B6846
:10083000314A934203D1FFF765FFF86002E0FFF70A
:1008400023FFF8603B685B681B01FA68B2FBF3F3B7
:100850001901FA6813469B0013449A001A443B6836
:100860005B689B00B2FBF3F23B685B681B01F868B6
:10087000B0FBF3F3642000FB03F3D31A1B01234AFC
:10088000A2FB03235B0903F00F030B43BB607B68F0
:100890009A68BB681A437B689A603B681B8A002B86
:1008A00026D07B68DB683A68128A1A437B68DA6074
:1008B0007B68114A934206D1154B1B68144A43F0DA
:1008C0002003136014E07B680E4A934206D1104B5C
:1008D0001B680F4A43F04003136009E07B680A4A33
:1008E000934205D10A4B1B68094A43F08003136009
:1008F00000BF1037BD4680BD0038014000100240E7
:100900001C00002000440040004800401F85EB51BF
:1009100004E100E080B588B000AF78607B683D4AB4
:10092000934224D13C4B9B693B4A43F004039361BF
:10093000394B9B69384A43F0010393610623BB7727
:100940000123FB774FF40073BB8307F11C031946A7
:100950003248FFF771FD0123BB764FF480633B8380
:1009600007F1180319462D48FFF766FD4EE07B6836
:100970002B4A934222D1284B9B69274A43F0040318
:100980009361254B9B69244A43F00103936106233D
:10099000BB750123FB750423BB8207F114031946C1
:1009A0001E48FFF749FD0123BB7408233B8207F172
:1009B000100319461948FFF73FFD27E07B68194AE5
:1009C000934223D1144B9B69134A43F0080393616C
:1009D000114B9B69104A43F0010393610623BB73DB
:1009E0000123FB734FF48063BB8107F10C031946AD
:1009F0000D48FFF721FD0123BB724FF400633B81DB
:100A000007F1080319460848FFF716FD00BF203715
:100A1000BD4680BD00380140001002400008014082
:100A20000044004000480040000C014080B485B004
:100A300000AFF860B9601346FB71FB79012B06D15A
:100A400000BFFB681B6803F08003002BF9D0FB6834
:100A50002B4A934217D12B4B1B681B89002B05D1C6
:100A6000BB681B88DAB2FB685A6043E0254B1B6801
:100A70001B89B3F5805F3DD1BB681B88C3F30802B7
:100A8000FB685A6036E0FB681F4A934217D11D4B42
:100A90005B681B89002B05D1BB681B88DAB2FB6839
:100AA0005A6027E0174B5B681B89B3F5805F21D143
:100AB000BB681B88C3F30802FB685A601AE0FB6836
:100AC000124A934216D10F4B9B681B89002B05D10C
:100AD000BB681B88DAB2FB685A600BE0094B9B6865
:100AE0001B89B3F5805F05D1BB681B88C3F308027F
:100AF000FB685A6000BF1437BD4680BC704700BF1A
:100B0000003801401C000020004400400048004024
:100B100080B485B000AFF860B9601346FB71FB7913
:100B2000012B06D100BFFB681B6803F02003002BDC
:100B3000F9D0FB684D4A93422ED14D4B1B681B895F
:100B4000B3F5805F12D14A4B1B685B89002B05D13E
:100B5000FB685B689AB2BB681A8082E0FB685B68DE
:100B60009BB2DBB29AB2BB681A807AE0404B1B683A
:100B70005B89002B07D1FB685B689BB2DBB29AB242
:100B8000BB681A806DE0FB685B689BB203F07F0373
:100B90009AB2BB681A8064E0FB68364A93422ED151
:100BA000334B5B681B89B3F5805F12D1304B5B68B8
:100BB0005B89002B05D1FB685B689AB2BB681A8021
:100BC0004FE0FB685B689BB2DBB29AB2BB681A80ED
:100BD00047E0274B5B685B89002B07D1FB685B68AC
:100BE0009BB2DBB29AB2BB681A803AE0FB685B68E2
:100BF0009BB203F07F039AB2BB681A8031E0FB68B6
:100C00001D4A93422DD11A4B9B681B89B3F5805F17
:100C100012D1174B9B685B89002B05D1FB685B6881
:100C20009AB2BB681A801CE0FB685B689BB2DBB2BF
:100C30009AB2BB681A8014E00D4B9B685B89002B4D
:100C400007D1FB685B689BB2DBB29AB2BB681A80C3
:100C500007E0FB685B689BB203F07F039AB2BB6856
:100C60001A8000BF1437BD4680BC70470038014071
:100C70001C000020004400400048004080B500AF48
:100C8000024B1B685B69984700BF80BD1C000020B9
:100C900080B500AF024B5B685B69984700BF80BDC1
:100CA0001C00002080B500AF024B9B685B69984731
:100CB00000BF80BD1C00002080B500AF00220549A8
:100CC0000548FFF725FF012202490348FFF7AEFE62
:100CD00000BF80BD640000200038014080B586B0B0
:100CE00000AF0C233B704FF416537B6000233B8115
:100CF00000237B810023BB810023FB8120233B82D7
:100D0000054B7B613B4619460448FFF739FD034814
:100D1000FFF700FEFEE700BFB90C000800380140F5
:100D20000D488546AFF300800C480D490D4A00235D
:100D300002E0D458C4500433C4188C42F9D30A4A90
:100D40000A4C002301E013600432A242FBD300F0FE
:100D500011F8FFF7C3FFFEE7002800200000002085
:100D600000000020DC0D00080000002068000020CA
:100D7000FEE7000070B500250C4E0D4CA41BA4101E
:100D8000A54209D100F01AF800250A4E0A4CA41B0E
:100D9000A410A54205D170BD56F8253098470135FD
:100DA000EEE756F8253098470135F2E7D40D0008F4
:100DB000D40D0008D40D0008D80D0008F8B500BF08
:100DC000F8BC08BC9E467047F8B500BFF8BC08BC2C
:040DD0009E46704784
:040DD40055010008BD
:040DD80031010008DD
:0400000508000D21C1
:00000001FF
