:020000040800F2
:10000000291000205503000849030008490300088F
:10001000490300084903000880B400AF00BFBD4693
:1000200080BC704780B500AF054B00221A700120DC
:1000300000F0A4F8034B044A1A6000BF80BD00BF63
:1000400008000020040000207500000880B500AF03
:10005000054B01221A70002000F090F8034B044A6F
:100060001A6000BF80BD00BF08000020040000200F
:100070007500000880B400AF034B02221A7000BF65
:10008000BD4680BC704700BF0800002080B400AFB0
:10009000034B044A1A6000BFBD4680BC704700BFD6
:1000A000040000202500000880B400AF034B044A80
:1000B0001A6000BFBD4680BC704700BF040000202E
:1000C0004D00000880B500AF054B00221A700A20D1
:1000D00000F038F8034B044A1A6000BF80BD00BF2F
:1000E0000C000020100000201101000880B500AFB6
:1000F000044B01221A70FFF7C9FF034B034A1A6031
:1001000000BF80BD0C00002010000020C5000008CA
:1001100080B500AF034B02221A70FFF7C5FF00BF86
:1001200080BD00BF0C00002080B400AF034B044A28
:100130001A6000BFBD4680BC704700BF10000020A1
:10014000ED00000880B483B000AF786002E07B6807
:10015000013B7B607B68002BF9D100BF00BF0C37EF
:10016000BD4680BC704780B400AF034B1B68DBB258
:100170001846BD4680BC70470808014080B483B073
:1001800000AF78607B68012B06D10A4B1B68094AD7
:1001900043F40053136008E07B68002B05D1054B46
:1001A0001B68044A23F40053136000BF0C37BD469C
:1001B00080BC70470C08014080B400AF0F4B1B6837
:1001C0000E4A43F0040313600D4B1B680C4A23F4E2
:1001D000700313600A4B0A4A1B681360094B1B68C3
:1001E000084A23F470031360064B1B68054A43F06A
:1001F0002233136000BFBD4680BC70471810024018
:10020000000801400408014080B400AF074B084AD1
:100210001A60084B084A1A60084B094A1A60094BD1
:10022000094A1A6000BFBD4680BC70472400002008
:10023000E9020008140000208502000810000020D8
:1002400011010008040000207500000880B500AF0F
:10025000FFF7B2FFFFF7D8FF064B1B689847064B26
:100260001B689847054B1B689847054B1B689847C8
:10027000F2E700BF2400002014000020100000203E
:100280000400002080B500AF064B00221A70064B18
:100290001A68064B1B689A4201DBFFF745FF00BF57
:1002A00080BD00BF1C0000201800002000000020BE
:1002B00080B483B000AF7860054A7B681360054B5B
:1002C000054A1A6000BF0C37BD4680BC704700BFAE
:1002D00018000020140000208502000880B400AF40
:1002E00000BFBD4680BC704780B500AF084B002200
:1002F0001A70FFF738FF0346064A1360054B1B6868
:100300001846FFF7D5FF044B044A1A6000BF80BDB2
:1003100028000020200000202400002021030008E5
:1003200080B500AF054B01221A700A20FFF70AFFC3
:10033000034B044A1A6000BF80BD00BF28000020A4
:1003400024000020E902000880B500AF00F002F8A8
:1003500000BF80BD80B586B000AF1B4A1B4B1B6839
:10036000D31A7B601A4B7B61174B3B610023FB6008
:100370000AE07A69531C7B613B69591C3961127828
:100380001A70FB680133FB60FB687A689A42F0D808
:10039000104A114BD31A3B600F4B3B610023BB60EB
:1003A00007E03B695A1C3A6100221A70BB680133AE
:1003B000BB60BB683A689A42F3D8FFF747FF00BFBB
:1003C0001837BD4680BD00BF00000020040000209B
:0C03D000DC0300082900002004000020CD
:0403DC001400000009
:0400000508000000EF
:00000001FF
