:100000000C942A000C9436000C9454000C9472004A
:100010000C94A6000C94A6000C94A6000C94A600C8
:100020000C94A6000C94A6000C94A6000C94A600B8
:100030000C94A6000C94A6000C94A6000C94A600A8
:100040000C94A6000C94A6000C94A6000C94A60098
:100050000C94A60011241FBECFE5D8E0DEBFCDBFB3
:0C0060000E9490000C943400F894FFCF34
:10006C001F920F920FB60F9211242F938F939F9381
:10007C0081B392B3806292BB81BB2FE784E89EE18F
:10008C00215080409040E1F700C000009F918F917B
:0C009C002F910F900FBE0F901F90189531
:1000A8001F920F920FB60F9211242F938F939F9345
:1000B80081B392B3806492BB81BB2FE784E89EE151
:1000C800215080409040E1F700C000009F918F913F
:0C00D8002F910F900FBE0F901F901895F5
:1000E4001F920F920FB60F9211242F938F939F9309
:1000F40081B392B3806892BB81BB2FE784E89EE111
:10010400215080409040E1F700C000009F918F9102
:0C0114002F910F900FBE0F901F901895B8
:1001200085B796B78D6096BF85BF8BB79CB7806E3D
:100130009CBF8BBF81B392B3806E92BB81BB78941E
:0C01400081B392B38F7192BB81BBFACFE8
:04014C000C9400000F
:00000001FF
