:020000040800F2
:10000000002800206D020008BD020008BD020008A3
:10001000BD020008BD020008BD020008000000008B
:10002000000000000000000000000000BD02000809
:10003000BD02000800000000BD020008BD0200086B
:10004000BD020008BD020008BD020008BD02000894
:10005000BD020008BD020008BD020008BD02000884
:10006000BD020008BD020008BD020008BD02000874
:10007000BD020008BD020008BD020008BD02000864
:10008000BD020008BD020008BD020008BD02000854
:10009000BD020008BD020008BD020008BD02000844
:1000A000BD020008BD020008BD020008BD02000834
:1000B000BD020008BD020008BD020008BD02000824
:1000C000BD020008BD020008BD020008BD02000814
:1000D000BD020008BD020008BD020008BD02000804
:1000E000BD020008BD02000800000000BD020008BB
:1000F000BD020008BD020008BD020008BD020008E4
:10010000BD020008BD020008BD020008BD020008D3
:10011000BD020008BD020008BD020008BD020008C3
:10012000BD020008BD020008BD020008BD020008B3
:1001300010B5054C237833B9044B13B10448AFF321
:1001400000800123237010BD00000020000000008B
:100150000803000808B5034B1BB103490348AFF37C
:10016000008008BD00000000040000200803000813
:1001700080B400AF074B1B68064A43F004031360CA
:10018000044B1B68034A43F00803136000BFBD46DD
:1001900080BC70471810024080B400AF184B00229A
:1001A0001A60184B00221A60174B00221A60164B77
:1001B0001B68154A23F030031360134B1B68124A67
:1001C00043F0400313600F4B1B680E4A23F44013A7
:1001D00013600C4B1B680B4A43F4800313600B4BFA
:1001E0001B680A4A43F070031360094B1B68084AF6
:1001F00043F4E003136000BFBD4680BC704700BFFE
:10020000080801400408014000080140000C0140BA
:10021000040C014080B500AFFFF7AAFFFFF7BCFF59
:10022000104B1B6803F00203002B0CD10E4B1B6814
:100230000D4A83F00203136000BF0A4B1B6803F0F2
:100240000203002BF9D0074B1B685B0B03F0010383
:10025000012BE5D1044B1B68034A83F40053136060
:10026000DEE700BF080801400C0C01400D48854640
:10027000AFF300800C480D490D4A002302E0D4582A
:10028000C4500433C4188C42F9D30A4A0A4C0023E0
:1002900001E013600432A242FBD300F011F8FFF733
:1002A000B9FFFEE700280020000000200000002029
:1002B00028030008000000201C000020FEE70000CA
:1002C00070B500250C4E0D4CA41BA410A54209D1FD
:1002D00000F01AF800250A4E0A4CA41BA410A542EF
:1002E00005D170BD56F8253098470135EEE756F830
:1002F000253098470135F2E7200300082003000865
:100300002003000824030008F8B500BFF8BC08BCAF
:100310009E467047F8B500BFF8BC08BC9E467047C3
:04032000550100087B
:04032400310100089B
:040000050800026D80
:00000001FF
